{
  "contractName": "ERC20",
  "abi": [
    {
      "constant": true,
      "inputs": [],
      "name": "name",
      "outputs": [
        {
          "name": "",
          "type": "string"
        }
      ],
      "payable": false,
      "stateMutability": "view",
      "type": "function"
    },
    {
      "constant": false,
      "inputs": [
        {
          "name": "_spender",
          "type": "address"
        },
        {
          "name": "_amount",
          "type": "uint256"
        }
      ],
      "name": "approve",
      "outputs": [
        {
          "name": "success",
          "type": "bool"
        }
      ],
      "payable": false,
      "stateMutability": "nonpayable",
      "type": "function"
    },
    {
      "constant": true,
      "inputs": [],
      "name": "totalSupply",
      "outputs": [
        {
          "name": "",
          "type": "uint256"
        }
      ],
      "payable": false,
      "stateMutability": "view",
      "type": "function"
    },
    {
      "constant": false,
      "inputs": [
        {
          "name": "_from",
          "type": "address"
        },
        {
          "name": "_to",
          "type": "address"
        },
        {
          "name": "_amount",
          "type": "uint256"
        }
      ],
      "name": "transferFrom",
      "outputs": [
        {
          "name": "success",
          "type": "bool"
        }
      ],
      "payable": false,
      "stateMutability": "nonpayable",
      "type": "function"
    },
    {
      "constant": true,
      "inputs": [],
      "name": "decimals",
      "outputs": [
        {
          "name": "",
          "type": "uint8"
        }
      ],
      "payable": false,
      "stateMutability": "view",
      "type": "function"
    },
    {
      "constant": true,
      "inputs": [
        {
          "name": "_owner",
          "type": "address"
        }
      ],
      "name": "balanceOf",
      "outputs": [
        {
          "name": "balance",
          "type": "uint256"
        }
      ],
      "payable": false,
      "stateMutability": "view",
      "type": "function"
    },
    {
      "constant": false,
      "inputs": [],
      "name": "acceptOwnership",
      "outputs": [],
      "payable": false,
      "stateMutability": "nonpayable",
      "type": "function"
    },
    {
      "constant": true,
      "inputs": [],
      "name": "owner",
      "outputs": [
        {
          "name": "",
          "type": "address"
        }
      ],
      "payable": false,
      "stateMutability": "view",
      "type": "function"
    },
    {
      "constant": true,
      "inputs": [],
      "name": "symbol",
      "outputs": [
        {
          "name": "",
          "type": "string"
        }
      ],
      "payable": false,
      "stateMutability": "view",
      "type": "function"
    },
    {
      "constant": false,
      "inputs": [
        {
          "name": "_to",
          "type": "address"
        },
        {
          "name": "_amount",
          "type": "uint256"
        }
      ],
      "name": "transfer",
      "outputs": [
        {
          "name": "success",
          "type": "bool"
        }
      ],
      "payable": false,
      "stateMutability": "nonpayable",
      "type": "function"
    },
    {
      "constant": true,
      "inputs": [],
      "name": "newOwner",
      "outputs": [
        {
          "name": "",
          "type": "address"
        }
      ],
      "payable": false,
      "stateMutability": "view",
      "type": "function"
    },
    {
      "constant": true,
      "inputs": [
        {
          "name": "_owner",
          "type": "address"
        },
        {
          "name": "_spender",
          "type": "address"
        }
      ],
      "name": "allowance",
      "outputs": [
        {
          "name": "remaining",
          "type": "uint256"
        }
      ],
      "payable": false,
      "stateMutability": "view",
      "type": "function"
    },
    {
      "constant": false,
      "inputs": [
        {
          "name": "_newOwner",
          "type": "address"
        }
      ],
      "name": "transferOwnership",
      "outputs": [],
      "payable": false,
      "stateMutability": "nonpayable",
      "type": "function"
    },
    {
      "inputs": [],
      "payable": false,
      "stateMutability": "nonpayable",
      "type": "constructor"
    },
    {
      "constant": false,
      "inputs": [],
      "name": "faucet",
      "outputs": [],
      "payable": false,
      "stateMutability": "nonpayable",
      "type": "function"
    },
    {
      "constant": false,
      "inputs": [
        {
          "name": "tokenAddress",
          "type": "address"
        },
        {
          "name": "amount",
          "type": "uint256"
        }
      ],
      "name": "transferAnyERC20Token",
      "outputs": [
        {
          "name": "success",
          "type": "bool"
        }
      ],
      "payable": false,
      "stateMutability": "nonpayable",
      "type": "function"
    }
  ],
  "bytecode": "0x60806040526000805534801561001457600080fd5b5060038054600160a060020a0319163317905561088d806100366000396000f3006080604052600436106100da5763ffffffff7c010000000000000000000000000000000000000000000000000000000060003504166306fdde0381146100df578063095ea7b31461016957806318160ddd146101a157806323b872dd146101c8578063313ce567146101f257806370a082311461021d57806379ba50971461023e5780638da5cb5b1461025557806395d89b4114610286578063a9059cbb1461029b578063d4ee1d90146102bf578063dc39d06d146102d4578063dd62ed3e146102f8578063de5f72fd1461031f578063f2fde38b14610334575b600080fd5b3480156100eb57600080fd5b506100f4610355565b6040805160208082528351818301528351919283929083019185019080838360005b8381101561012e578181015183820152602001610116565b50505050905090810190601f16801561015b5780820380516001836020036101000a031916815260200191505b509250505060405180910390f35b34801561017557600080fd5b5061018d600160a060020a036004351660243561038c565b604080519115158252519081900360200190f35b3480156101ad57600080fd5b506101b66103f7565b60408051918252519081900360200190f35b3480156101d457600080fd5b5061018d600160a060020a03600435811690602435166044356103fd565b3480156101fe57600080fd5b50610207610559565b6040805160ff9092168252519081900360200190f35b34801561022957600080fd5b506101b6600160a060020a036004351661055e565b34801561024a57600080fd5b50610253610579565b005b34801561026157600080fd5b5061026a6105be565b60408051600160a060020a039092168252519081900360200190f35b34801561029257600080fd5b506100f46105cd565b3480156102a757600080fd5b5061018d600160a060020a0360043516602435610604565b3480156102cb57600080fd5b5061026a6106cd565b3480156102e057600080fd5b5061018d600160a060020a03600435166024356106dc565b34801561030457600080fd5b506101b6600160a060020a0360043581169060243516610798565b34801561032b57600080fd5b506102536107c3565b34801561034057600080fd5b50610253600160a060020a03600435166107fa565b60408051808201909152600881527f5445535420424554000000000000000000000000000000000000000000000000602082015281565b60008115806103bc5750336000908152600260209081526040808320600160a060020a0387168452909152902054155b15156103c757600080fd5b50336000908152600260209081526040808320600160a060020a0386168452909152902081905560015b92915050565b60005490565b600160a060020a03831660009081526001602052604081205482118015906104485750600160a060020a03841660009081526002602090815260408083203384529091529020548211155b80156104545750600082115b80156104795750600160a060020a038316600090815260016020526040902054828101115b1561054e57600160a060020a0384166000908152600160205260409020546104a7908363ffffffff61084016565b600160a060020a03851660009081526001602090815260408083209390935560028152828220338352905220546104e4908363ffffffff61084016565b600160a060020a038086166000908152600260209081526040808320338452825280832094909455918616815260019091522054610528908363ffffffff61085216565b600160a060020a0384166000908152600160208190526040909120919091559050610552565b5060005b9392505050565b601281565b600160a060020a031660009081526001602052604090205490565b600454600160a060020a03163314156105bc576004546003805473ffffffffffffffffffffffffffffffffffffffff1916600160a060020a039092169190911790555b565b600354600160a060020a031681565b60408051808201909152600381527f4245540000000000000000000000000000000000000000000000000000000000602082015281565b3360009081526001602052604081205482118015906106235750600082115b80156106485750600160a060020a038316600090815260016020526040902054828101115b156106c5573360009081526001602052604090205461066d908363ffffffff61084016565b3360009081526001602052604080822092909255600160a060020a0385168152205461069f908363ffffffff61085216565b600160a060020a03841660009081526001602081905260409091209190915590506103f1565b5060006103f1565b600454600160a060020a031681565b600354600090600160a060020a031633146106f657600080fd5b600354604080517fa9059cbb000000000000000000000000000000000000000000000000000000008152600160a060020a0392831660048201526024810185905290519185169163a9059cbb916044808201926020929091908290030181600087803b15801561076557600080fd5b505af1158015610779573d6000803e3d6000fd5b505050506040513d602081101561078f57600080fd5b50519392505050565b600160a060020a03918216600090815260026020908152604080832093909416825291909152205490565b336000908152600160205260408120805468056bc75e2d6310000090810190915590546107f59163ffffffff61085216565b600055565b600354600160a060020a0316331461081157600080fd5b6004805473ffffffffffffffffffffffffffffffffffffffff1916600160a060020a0392909216919091179055565b60008282111561084c57fe5b50900390565b60008282018381101561055257fe00a165627a7a7230582085c5f9346a4bee00c7b116d8bf52314a1fa46a1a893e7d0cf48346e6fd847a350029",
  "source": "pragma solidity ^0.4.11;\n\n// ----------------------------------------------------------------------------\n// Dao.Casino Crowdsale Token Contract\n//\n// NOTE: This is the new Dao.Casino token contract as the old Dao.Casino\n//       crowdsale/token contract was attached to a buggy Parity multisig that\n//       was vulnerable to hackers\n//\n// Enjoy. (c) BokkyPooBah / Bok Consulting Pty Ltd for Dao.Casino 2017\n// The MIT Licence.\n// ----------------------------------------------------------------------------\n\n\n// ----------------------------------------------------------------------------\n// Safe maths, borrowed from OpenZeppelin\n// ----------------------------------------------------------------------------\nimport '../library/SafeMath.sol';\n\n\n// ----------------------------------------------------------------------------\n// Owned contract\n// ----------------------------------------------------------------------------\ncontract Owned {\n    address public owner;\n    address public newOwner;\n\n    constructor () public {\n        owner = msg.sender;\n    }\n\n    modifier onlyOwner {\n        require(msg.sender == owner);\n        _;\n    }\n\n    function transferOwnership(address _newOwner) public onlyOwner {\n        newOwner = _newOwner;\n    }\n \n    function acceptOwnership() public {\n        if (msg.sender == newOwner) {\n            owner = newOwner;\n        }\n    }\n}\n\n// ----------------------------------------------------------------------------\n// ERC20 Token, with the addition of symbol, name and decimals\n// https://github.com/ethereum/EIPs/issues/20\n// ----------------------------------------------------------------------------\ncontract ERC20Token {\n    using SafeMath for uint;\n\n    // ------------------------------------------------------------------------\n    // Total Supply\n    // ------------------------------------------------------------------------\n    uint256 _totalSupply = 0;\n\n    // ------------------------------------------------------------------------\n    // Balances for each account\n    // ------------------------------------------------------------------------\n    mapping(address => uint256) balances;\n\n    // ------------------------------------------------------------------------\n    // Owner of account approves the transfer of an amount to another account\n    // ------------------------------------------------------------------------\n    mapping(address => mapping (address => uint256)) allowed;\n\n    // ------------------------------------------------------------------------\n    // Get the total token supply\n    // ------------------------------------------------------------------------\n    function totalSupply() public view returns (uint256) {\n        return _totalSupply;\n    }\n\n    // ------------------------------------------------------------------------\n    // Get the account balance of another account with address _owner\n    // ------------------------------------------------------------------------\n    function balanceOf(address _owner) public constant returns (uint256 balance) {\n        return balances[_owner];\n    }\n\n    // ------------------------------------------------------------------------\n    // Transfer the balance from owner's account to another account\n    // ------------------------------------------------------------------------\n    function transfer(address _to, uint256 _amount) public returns (bool success) {\n        if (balances[msg.sender] >= _amount && _amount > 0 && balances[_to] + _amount > balances[_to]) {\n            balances[msg.sender] = balances[msg.sender].sub(_amount);\n            balances[_to] = balances[_to].add(_amount);\n            return true;\n        } else {\n            return false;\n        }\n    }\n\n    // ------------------------------------------------------------------------\n    // Allow _spender to withdraw from your account, multiple times, up to the\n    // _value amount. If this function is called again it overwrites the\n    // current allowance with _value.\n    // ------------------------------------------------------------------------\n    function approve(\n        address _spender,\n        uint256 _amount\n    ) \n        public returns (bool success) \n    {\n        // Borrowed from the MiniMeToken contract\n        // To change the approve amount you first have to reduce the addresses`\n        //  allowance to zero by calling `approve(_spender,0)` if it is not\n        //  already 0 to mitigate the race condition described here:\n        //  https://github.com/ethereum/EIPs/issues/20#issuecomment-263524729\n        require((_amount == 0) || (allowed[msg.sender][_spender] == 0));\n\n        allowed[msg.sender][_spender] = _amount;\n        return true;\n    }\n\n    // ------------------------------------------------------------------------\n    // Spender of tokens transfer an amount of tokens from the token owner's\n    // balance to the spender's account. The owner of the tokens must already\n    // have approve(...)-d this transfer\n    // ------------------------------------------------------------------------\n    function transferFrom(\n        address _from,\n        address _to,\n        uint256 _amount\n    ) \n        public returns (bool success) \n    {\n        if (balances[_from] >= _amount && allowed[_from][msg.sender] >= _amount && _amount > 0 && balances[_to] + _amount > balances[_to]) {\n            balances[_from] = balances[_from].sub(_amount);\n            allowed[_from][msg.sender] = allowed[_from][msg.sender].sub(_amount);\n            balances[_to] = balances[_to].add(_amount);\n            return true;\n        } else {\n            return false;\n        }\n    }\n\n    // ------------------------------------------------------------------------\n    // Returns the amount of tokens approved by the owner that can be\n    // transferred to the spender's account\n    // ------------------------------------------------------------------------\n    function allowance(\n        address _owner, \n        address _spender\n    ) public constant returns (uint256 remaining)\n    {\n    return allowed[_owner][_spender];\n    }\n\n}\n\n\ncontract ERC20 is ERC20Token, Owned {\n\n    // ------------------------------------------------------------------------\n    // Token information\n    // ------------------------------------------------------------------------\n    string public constant name = \"TEST BET\";\n    string public constant symbol = \"BET\";\n    uint8 public constant decimals = 18;\n\n    constructor() public {\n    }\n\n    // ------------------------------------------------------------------------\n    // Only for testing in testnet\n    // ------------------------------------------------------------------------\n    function faucet() public {\n        balances[msg.sender] += 100 ether;\n        _totalSupply = _totalSupply.add(100 ether);\n    }\n\n    // ------------------------------------------------------------------------\n    // Owner can transfer out any accidentally sent ERC20 tokens\n    // ------------------------------------------------------------------------\n    function transferAnyERC20Token(address tokenAddress, uint amount)\n      public onlyOwner returns (bool success) \n    {\n        return ERC20Token(tokenAddress).transfer(owner, amount);\n    }\n}",
  "sourcePath": "/Users/alexanderdavy/projects/Protocol/contracts/core/erc20.sol",
  "compiler": {
    "name": "solc",
    "version": "0.4.24+commit.e67f0147.Emscripten.clang"
  },
  "schemaVersion": "2.0.1",
  "updatedAt": "2018-09-25T08:42:43.483Z"
}