{
  "contractName": "GameWL",
  "abi": [
    {
      "constant": true,
      "inputs": [],
      "name": "owner",
      "outputs": [
        {
          "name": "",
          "type": "address"
        }
      ],
      "payable": false,
      "stateMutability": "view",
      "type": "function"
    },
    {
      "inputs": [],
      "payable": false,
      "stateMutability": "nonpayable",
      "type": "constructor"
    },
    {
      "constant": false,
      "inputs": [
        {
          "name": "_newOwner",
          "type": "address"
        }
      ],
      "name": "ownerTransfership",
      "outputs": [],
      "payable": false,
      "stateMutability": "nonpayable",
      "type": "function"
    },
    {
      "constant": false,
      "inputs": [
        {
          "name": "_game",
          "type": "address"
        }
      ],
      "name": "addGame",
      "outputs": [
        {
          "name": "success",
          "type": "bool"
        }
      ],
      "payable": false,
      "stateMutability": "nonpayable",
      "type": "function"
    },
    {
      "constant": false,
      "inputs": [
        {
          "name": "_game",
          "type": "address"
        }
      ],
      "name": "delGame",
      "outputs": [
        {
          "name": "success",
          "type": "bool"
        }
      ],
      "payable": false,
      "stateMutability": "nonpayable",
      "type": "function"
    },
    {
      "constant": true,
      "inputs": [
        {
          "name": "_game",
          "type": "address"
        }
      ],
      "name": "getStatus",
      "outputs": [
        {
          "name": "status",
          "type": "bool"
        }
      ],
      "payable": false,
      "stateMutability": "view",
      "type": "function"
    }
  ],
  "bytecode": "0x608060405234801561001057600080fd5b5060008054600160a060020a03191633179055610259806100326000396000f30060806040526004361061006c5763ffffffff7c010000000000000000000000000000000000000000000000000000000060003504166330ccebb581146100715780636fdc202f146100a65780638da5cb5b146100c9578063d72d04db146100fa578063eda30c9e1461011b575b600080fd5b34801561007d57600080fd5b50610092600160a060020a036004351661013c565b604080519115158252519081900360200190f35b3480156100b257600080fd5b506100c7600160a060020a036004351661015a565b005b3480156100d557600080fd5b506100de6101a0565b60408051600160a060020a039092168252519081900360200190f35b34801561010657600080fd5b50610092600160a060020a03600435166101af565b34801561012757600080fd5b50610092600160a060020a03600435166101ef565b600160a060020a031660009081526001602052604090205460ff1690565b600054600160a060020a0316331461017157600080fd5b6000805473ffffffffffffffffffffffffffffffffffffffff1916600160a060020a0392909216919091179055565b600054600160a060020a031681565b60008054600160a060020a031633146101c757600080fd5b50600160a060020a03166000908152600160208190526040909120805460ff19168217905590565b60008054600160a060020a0316331461020757600080fd5b50600160a060020a03166000908152600160208190526040909120805460ff19169055905600a165627a7a7230582013cd1cc9066a3415e7a1fbd773c406878af6143252d2279aa80c397df4f9fb4c0029",
  "source": "pragma solidity ^0.4.23;\n\n/**\n@title Whitelist of games\n@notice contract for managing the list of games\n*/\ncontract GameWL {\n    \n    /**\n    @notice constructor of contract\n    */\n    constructor () public {\n        owner = msg.sender;\n    }\n\n    modifier onlyOwner() {\n        require(msg.sender == owner);\n        _;\n    }\n\n    /**\n    @notice change of ownership\n    @param _newOwner address of new contract owner\n    */\n    function ownerTransfership(address _newOwner) public onlyOwner {\n        owner = _newOwner;\n    }\n\n    address public owner;\n\n    mapping (address => bool) whitelist;\n\n    /**\n    @notice Set the launch permission\n    @param _game address of the game\n    @return success\n    */\n    function addGame(address _game) public onlyOwner returns(bool success) {\n        whitelist[_game] = true;\n        success = true;\n    }\n\n    /**\n    @notice Delete the launch permission\n    @param _game address of the game\n    @return success\n    */\n    function delGame(address _game) public onlyOwner returns(bool success) {\n        whitelist[_game] = false;\n        success = true;\n    }\n\n    /**\n    @notice Get the launch permission\n    @param _game address of the game\n    @return game status\n    */\n    function getStatus(address _game) external view returns(bool status) {\n        status = whitelist[_game];\n    }\n\n}",
  "sourcePath": "/Users/alexanderdavy/projects/Protocol/contracts/whitelists/gameWL.sol",
  "compiler": {
    "name": "solc",
    "version": "0.4.24+commit.e67f0147.Emscripten.clang"
  },
  "schemaVersion": "2.0.1",
  "updatedAt": "2018-09-25T08:42:42.496Z"
}