{
  "contractName": "PlayerWL",
  "abi": [
    {
      "constant": true,
      "inputs": [],
      "name": "owner",
      "outputs": [
        {
          "name": "",
          "type": "address"
        }
      ],
      "payable": false,
      "stateMutability": "view",
      "type": "function"
    },
    {
      "constant": true,
      "inputs": [],
      "name": "minimal",
      "outputs": [
        {
          "name": "",
          "type": "uint256"
        }
      ],
      "payable": false,
      "stateMutability": "view",
      "type": "function"
    },
    {
      "inputs": [
        {
          "name": "_min",
          "type": "uint256"
        }
      ],
      "payable": false,
      "stateMutability": "nonpayable",
      "type": "constructor"
    },
    {
      "constant": false,
      "inputs": [
        {
          "name": "_newOwner",
          "type": "address"
        }
      ],
      "name": "ownerTransfership",
      "outputs": [],
      "payable": false,
      "stateMutability": "nonpayable",
      "type": "function"
    },
    {
      "constant": false,
      "inputs": [
        {
          "name": "_player",
          "type": "address"
        },
        {
          "name": "_amount",
          "type": "uint256"
        }
      ],
      "name": "setAmountForPlayer",
      "outputs": [
        {
          "name": "",
          "type": "bool"
        }
      ],
      "payable": false,
      "stateMutability": "nonpayable",
      "type": "function"
    },
    {
      "constant": true,
      "inputs": [
        {
          "name": "_player",
          "type": "address"
        }
      ],
      "name": "getMaxAmount",
      "outputs": [
        {
          "name": "_amount",
          "type": "uint256"
        }
      ],
      "payable": false,
      "stateMutability": "view",
      "type": "function"
    }
  ],
  "bytecode": "0x608060405234801561001057600080fd5b50604051602080610277833981016040525160018054600160a060020a03191633179055600055610231806100466000396000f30060806040526004361061006c5763ffffffff7c010000000000000000000000000000000000000000000000000000000060003504166308af84f0811461007157806315525991146100a95780636fdc202f146100dc5780638da5cb5b146100ff57806394a53d4114610130575b600080fd5b34801561007d57600080fd5b50610095600160a060020a0360043516602435610145565b604080519115158252519081900360200190f35b3480156100b557600080fd5b506100ca600160a060020a0360043516610180565b60408051918252519081900360200190f35b3480156100e857600080fd5b506100fd600160a060020a03600435166101aa565b005b34801561010b57600080fd5b506101146101f0565b60408051600160a060020a039092168252519081900360200190f35b34801561013c57600080fd5b506100ca6101ff565b600154600090600160a060020a0316331461015f57600080fd5b50600160a060020a0391909116600090815260026020526040902055600190565b600160a060020a0381166000908152600260205260409020548015156101a557506000545b919050565b600154600160a060020a031633146101c157600080fd5b6001805473ffffffffffffffffffffffffffffffffffffffff1916600160a060020a0392909216919091179055565b600154600160a060020a031681565b600054815600a165627a7a723058203e734904f6830c2869168208fa6e56988e8c2378615b549596fa5ab99767e47f0029",
  "source": "pragma solidity ^0.4.23;\n\n/**\n@title Whitelist of players\n@notice contract for managing the list of players\n*/\ncontract PlayerWL {\n    \n    /**\n    @notice constructor of contract\n    @param _min the minimum allowed amount \n    */\n    constructor (uint _min) public {\n        owner = msg.sender;\n        minimal = _min;\n    }\n\n    modifier onlyOwner() {\n        require(msg.sender == owner);\n        _;\n    }\n\n    /**\n    @notice change of ownership\n    @param _newOwner address of new contract owner\n    */\n    function ownerTransfership(address _newOwner) public onlyOwner {\n        owner = _newOwner;\n    }\n\n    uint public minimal;\n    address public owner;\n\n    mapping (address => uint) whitelist;\n\n    /**\n    @notice Set the allowed amount\n    @param _player address of the player\n    @param _amount allowable amount\n    @return success\n    */\n    function setAmountForPlayer(address _player, uint _amount) public onlyOwner returns(bool) {\n        whitelist[_player] = _amount;\n        return true;\n    }\n\n    /**\n    @notice Get the allowed amount\n    @param _player address of the player\n    @return allowable amount\n    */\n    function getMaxAmount(address _player) external view returns(uint _amount) {\n        _amount = whitelist[_player];\n        if (_amount == uint(0)) {\n            _amount = minimal;\n        }\n    }\n\n}",
  "sourcePath": "/Users/alexanderdavy/projects/Protocol/contracts/whitelists/playerWL.sol",
  "compiler": {
    "name": "solc",
    "version": "0.4.24+commit.e67f0147.Emscripten.clang"
  },
  "schemaVersion": "2.0.1",
  "updatedAt": "2018-09-25T08:42:42.498Z"
}