{
  "contractName": "Referrer",
  "abi": [
    {
      "constant": true,
      "inputs": [
        {
          "name": "",
          "type": "address"
        }
      ],
      "name": "operatorOf",
      "outputs": [
        {
          "name": "",
          "type": "address"
        }
      ],
      "payable": false,
      "stateMutability": "view",
      "type": "function"
    },
    {
      "constant": true,
      "inputs": [
        {
          "name": "",
          "type": "address"
        }
      ],
      "name": "referrerCount",
      "outputs": [
        {
          "name": "",
          "type": "uint256"
        }
      ],
      "payable": false,
      "stateMutability": "view",
      "type": "function"
    },
    {
      "constant": true,
      "inputs": [],
      "name": "owner",
      "outputs": [
        {
          "name": "",
          "type": "address"
        }
      ],
      "payable": false,
      "stateMutability": "view",
      "type": "function"
    },
    {
      "constant": true,
      "inputs": [
        {
          "name": "",
          "type": "address"
        }
      ],
      "name": "referrerOf",
      "outputs": [
        {
          "name": "",
          "type": "address"
        }
      ],
      "payable": false,
      "stateMutability": "view",
      "type": "function"
    },
    {
      "constant": true,
      "inputs": [],
      "name": "users",
      "outputs": [
        {
          "name": "",
          "type": "uint256"
        }
      ],
      "payable": false,
      "stateMutability": "view",
      "type": "function"
    },
    {
      "inputs": [],
      "payable": false,
      "stateMutability": "nonpayable",
      "type": "constructor"
    },
    {
      "constant": false,
      "inputs": [
        {
          "name": "_player",
          "type": "address"
        },
        {
          "name": "_referrer",
          "type": "address"
        }
      ],
      "name": "setService",
      "outputs": [],
      "payable": false,
      "stateMutability": "nonpayable",
      "type": "function"
    },
    {
      "constant": true,
      "inputs": [
        {
          "name": "_player",
          "type": "address"
        }
      ],
      "name": "getService",
      "outputs": [
        {
          "name": "_operator",
          "type": "address"
        },
        {
          "name": "_referrer",
          "type": "address"
        }
      ],
      "payable": false,
      "stateMutability": "view",
      "type": "function"
    },
    {
      "constant": true,
      "inputs": [
        {
          "name": "_player",
          "type": "address"
        }
      ],
      "name": "getReferrer",
      "outputs": [
        {
          "name": "_referrer",
          "type": "address"
        }
      ],
      "payable": false,
      "stateMutability": "view",
      "type": "function"
    },
    {
      "constant": true,
      "inputs": [
        {
          "name": "_player",
          "type": "address"
        }
      ],
      "name": "getOperator",
      "outputs": [
        {
          "name": "_operator",
          "type": "address"
        }
      ],
      "payable": false,
      "stateMutability": "view",
      "type": "function"
    }
  ],
  "bytecode": "0x6080604052600060045534801561001557600080fd5b5060008054600160a060020a0319163317905561043d806100376000396000f3006080604052600436106100985763ffffffff7c010000000000000000000000000000000000000000000000000000000060003504166315a52302811461009d57806329eae053146100e45780634a9fefc71461010d5780635865c60c1461014a578063636f35d31461016b578063716026921461018c5780638da5cb5b146101bf578063d21cacdf146101d4578063f2020275146101f5575b600080fd5b3480156100a957600080fd5b506100be600160a060020a036004351661020a565b60408051600160a060020a03938416815291909216602082015281519081900390910190f35b3480156100f057600080fd5b5061010b600160a060020a0360043581169060243516610239565b005b34801561011957600080fd5b5061012e600160a060020a0360043516610378565b60408051600160a060020a039092168252519081900360200190f35b34801561015657600080fd5b5061012e600160a060020a0360043516610396565b34801561017757600080fd5b5061012e600160a060020a03600435166103b4565b34801561019857600080fd5b506101ad600160a060020a03600435166103cf565b60408051918252519081900360200190f35b3480156101cb57600080fd5b5061012e6103e1565b3480156101e057600080fd5b5061012e600160a060020a03600435166103f0565b34801561020157600080fd5b506101ad61040b565b600160a060020a0390811660009081526002602090815260408083205460019092529091205490821692911690565b600054600160a060020a0316331461025057600080fd5b600160a060020a03828116600090815260016020526040902054161580156102905750600160a060020a0382811660009081526002602052604090205416155b151561029b57600080fd5b600160a060020a0381166000818152600360205260409020805460019081019091556004805490910190551561030b57600160a060020a038281166000908152600160205260409020805473ffffffffffffffffffffffffffffffffffffffff1916918316919091179055610341565b600160a060020a0382166000908152600160205260409020805473ffffffffffffffffffffffffffffffffffffffff1916331790555b50600160a060020a03166000908152600260205260409020805473ffffffffffffffffffffffffffffffffffffffff191633179055565b600160a060020a039081166000908152600160205260409020541690565b600160a060020a039081166000908152600260205260409020541690565b600260205260009081526040902054600160a060020a031681565b60036020526000908152604090205481565b600054600160a060020a031681565b600160205260009081526040902054600160a060020a031681565b600454815600a165627a7a7230582041c15fb6bf151b98aa6d7a1bad875bead0acc87a23f63964eeb8d64524894bc80029",
  "source": "pragma solidity ^0.4.23;\n\n/**\n@title Referrer Contract\n*/\ncontract Referrer {\n\n    address public owner;\n    mapping(address => address) public referrerOf;\n    mapping(address => address) public operatorOf;\n    mapping(address => uint) public referrerCount;\n    uint public users = 0;\n\n    constructor () public {\n        owner = msg.sender;\n    }\n\n    /**\n    @notice Player registration\n    @param _player Player address\n    @param _referrer Referrer address\n    */\n    function setService(address _player, address _referrer) public {\n        require(msg.sender == owner);\n        require(referrerOf[_player] == address(0) && operatorOf[_player] == address(0)); \n        referrerCount[_referrer]++;\n        users++;\n        if (_referrer != address(0)) {\n            referrerOf[_player] = _referrer;\n        } else {\n            referrerOf[_player] = msg.sender;   \n        }\n        operatorOf[_player] = msg.sender;\n    }\n\n    /** \n    @notice Get address of operator and referrer\n    @param _player Address of player\n    @return {\n      \"_operator\": \"The operator address to receive a reward\",\n      \"_referrer\": \"The referrer address to receive a reward\"\n    }\n    */\n    function getService(address _player) external view returns(address _operator, address _referrer) {\n        return (operatorOf[_player], referrerOf[_player]);\n    }\n\n    /** \n    @notice Get address of referrer\n    @param _player Address of player\n    @return The referrer address to receive a reward\n    */\n    function getReferrer(address _player) external view returns(address _referrer) {\n        return referrerOf[_player];\n    }\n\n    /** \n    @notice Get address of operator (platform)\n    @param _player Address of player\n    @return The operator address to receive a reward\n    */\n    function getOperator(address _player) external view returns(address _operator) {\n        return operatorOf[_player];\n    }\n\n}",
  "sourcePath": "/Users/alexanderdavy/projects/Protocol/contracts/whitelists/Referrer.sol",
  "compiler": {
    "name": "solc",
    "version": "0.4.24+commit.e67f0147.Emscripten.clang"
  },
  "schemaVersion": "2.0.1",
  "updatedAt": "2018-09-25T08:42:42.495Z"
}